:020000040800F2
:100000004804002035010008CB040008F103000873
:10001000C904000851020008250A00080000000079
:10002000000000000000000000000000A50700081C
:10003000BB02000800000000C905000831080008E4
:100040004F0100084F0100084F0100084F01000850
:100050004F0100084F0100084F0100084F01000840
:100060004F0100084F0100084F0100084F01000830
:100070004F0100084F0100084F0100084F01000820
:100080004F0100084F0100084F0100080000000068
:100090000000000000000000000000004F01000808
:1000A0004F0100084F0100084F0100084F010008F0
:1000B0004F0100084F0100084F0100084F010008E0
:1000C0004F0100084F0100084F0100084F010008D0
:1000D0004F0100084F0100084F0100084F010008C0
:1000E0004F0100084F0100084F0100080000000008
:1000F0000000000000000000000000000000000000
:1001000000000000000000000000000000000000EF
:1001100000000000000000004F0100084F0100082F
:10012000DFF80CD000F018F800480047150B000865
:10013000480400200648804706480047FEE7FEE7DF
:10014000FEE7FEE7FEE7FEE7FEE7FEE7FEE7FEE787
:100150003508000821010008064C074D06E0E0685C
:1001600040F0010394E8070098471034AC42F6D3FE
:10017000FFF7DAFF0C0D00082C0D000810481721BE
:1001800001709E214170482181701621C170282183
:100190000171AE214171D2218171A621C171AB21C2
:1001A0000172F7214172152181728821C1720921E2
:1001B0000173CF2141734F2181733C21C17370477B
:1001C0003400002009480021017041708170C17025
:1001D000017141718171C171017241728172C1728B
:1001E000017341738173C1737047000024000020C4
:1001F0002DE9F04100F026FC144F0024124D4FF47D
:10020000807607F1040819E0C4B100F0E7FC00F0C3
:10021000C9FC00F08DFC285D00F024FC00F012FC0D
:10022000641C092CF0DB00F0D9FC00F0BBFC285D5D
:1002300000F018FCBDE8F04100F004BC3E6000F0A6
:10024000CDFCC8F80060E2E714000020100C01406B
:10025000FEE710B54FF48034204600F045FA00F078
:100260008BFA012800D0FEE74FF4E011204600F0A1
:100270006FFA012000F066FA022000F073FA002005
:1002800000F028FA4FF4806000F048FA002000F0F7
:100290004FFA012000F0B2F90121142000F096F984
:1002A000012144F27D0000F09DF9022000F04AF89F
:1002B000BDE81040102000F039B8704730B51A4A38
:1002C0008379016853B313688B431360111D0B6866
:1002D0000468A3430B60017911440B68046823434D
:1002E0000B60114B083319680468A14319601C1D89
:1002F00021680568A94321604179102905D011447E
:100300000A68006802430A6030BD19680268114338
:100310001960216800680143216030BD00791044F4
:1003200002688A43026030BD0004014004490A6843
:1003300022F010020A600A6802430A607047000057
:1003400000200240034A116801F0380101431160A6
:100350007047000000200240F0B5CC78002204F085
:100360000F03E40601D58C7823430C784FF00F0C73
:100370004FF0010EDCB105680E880EFA02F426403B
:10038000A64210D196000CFA06F725EA070703FAF1
:1003900006F5CE783D43282E02D0482E02D002E04A
:1003A000446100E00461521C082AE5D305600A8814
:1003B000FF2A1CD94468002202F108060EFA06F54D
:1003C0000E882E40AE420ED196000CFA06F7BC43C2
:1003D00003FA06F7CE783C43282E00D14561CE784B
:1003E000482E00D10561521C082AE5D34460F0BDB7
:1003F000FEE7000070B588B0FFF72BFF2E480168BC
:1004000041F4E0210160E02000F0D4F8012000F088
:10041000CBF84FF40075ADF8005003248DF802407E
:100420001820264E8DF8030069463046FFF794FFEA
:100430006800ADF800008DF8024004208DF803003C
:1004400069463046FFF788FF6810ADF800001020BD
:100450008DF803008DF8024069461948FFF77CFFCC
:1004600000F066F80024ADF81440ADF81850ADF86F
:100470001640ADF81A4005A800F00DFA114D05A977
:10048000284600F0F9F94FF461400190ADF80C40B6
:100490000C20ADF80840ADF80E00ADF80A40ADF8FC
:1004A000104001A9284600F00DFA0121284600F06D
:1004B000F8F908B070BD000024ED00E0000801402C
:1004C000000C014000380140FEE7704770B50F2373
:1004D000C278017801244FF0E025DAB1124A12689F
:1004E00002F4E062C2F5E062120AC2F10406D340EF
:1004F0004278B24086781E400C4B16433201CA54F3
:10050000007800F01F018C40400905EB8000C0F826
:10051000004170BD01F01F008440480905EB8000D8
:10052000C0F8804170BD00000CED00E000E400E088
:100530003EB54FF48030009000208DF80400082074
:100540008DF8050001248DF806406846FFF7B6FED9
:100550008DF808400F208DF809008DF80A008DF8FD
:100560000B4002A8FFF7B2FFF0216FF00B0000F084
:100570000BF880216FF00A0000F006F810216FF0F0
:10058000090000F001F83EBD0907090E002803DA52
:1005900000F00F00024A00E0024A81547047000058
:1005A00014ED00E000E400E001490861704700003C
:1005B00000000E42034A116821F0E001014311607E
:1005C000704700000070004070470000044A002996
:1005D000516901D0014300E081435161704700003F
:1005E00000100240044A0029916901D0014300E053
:1005F0008143916170470000001002400149C864C6
:10060000704700000000424230B5224A5168224B38
:1006100011F00C0103D0042901D0082901D0036096
:1006200015E05168546801F470114FF0020514F49C
:10063000803F05EB914107D0D46A04F00F04641C9D
:10064000B3FBF4F34B43EAE7144B594301605168A1
:100650000F2303EA1111124B5C5C0168E140416019
:100660005468072505EA14241C5D21FA04F484600B
:10067000546805EAD4241B5DD940C1605268032345
:1006800003EA9232064B1B1F9A5CB1FBF2F1016147
:1006900030BD00000010024000127A0000093D0049
:1006A00004000020034600205909094A01290AD004
:1006B00002290AD0516A03F01F02012393400B4222
:1006C00000D0012070471168F5E7116AF3E70000D8
:1006D00000100240034A516821F0F00101435160CB
:1006E00070470000001002400B490A6822F4803273
:1006F0000A600A6822F480220A60B0F5803F07D0C1
:10070000B0F5802F03D1086840F4A020086070473E
:10071000086840F48030F9E700100240034A51684D
:1007200021F4E06101435160704700000010024075
:10073000034A516821F4605141EAC000506070479B
:100740000010024001490866704700000000424264
:10075000034B5A68084322F47412104358607047E0
:1007600000100240034A516821F003010143516027
:10077000704700000010024018B500204FF4A0643C
:1007800000903120FFF78EFF0099491C0091A14293
:1007900001D00028F5D03120FFF784FF002800D0D9
:1007A000012018BD704700000CB500221F480092C0
:1007B0000192016841F4803101604FF4A063016847
:1007C00001F4003101910099491C0091019911B97E
:1007D00000999942F3D10168890324D5012101913F
:1007E000416841604168416041684160416821F46D
:1007F0007C114160416841F498114160016841F009
:100800008071016001688901FCD5416821F0030114
:100810004160416841F0020141604168C1F38101DA
:100820000229FAD10CBD01920CBD0000001002405B
:10083000704700000D48016841F001010160416806
:100840000B4A1140416001680A4A11400160016889
:1008500021F480210160416821F4FE0141604FF4E0
:100860001F0181600021C162FFF79EBF001002409E
:100870000000FFF8FFFFF6FE10B5028A4FF2FF03FB
:100880001A400B884C8823438C88C9880C43234327
:100890001343038210BD0021018041808180C1800B
:1008A00070470029818902D041F4005101E021F410
:1008B0000051818170470246002012880A4200D010
:1008C0000120704730B50446008A85B00D464CF6CD
:1008D000FF710840E98801432182A0894EF6F31197
:1008E0000840A9882A8911436A8902431143A181DA
:1008F000A08A4FF6FF410840A9890143A1826846BA
:10090000FFF782FE1B48844201D1039800E0029861
:10091000A1890904002900EBC00101EB001029683E
:1009200002DA4FEA410101E04FEA8101B0FBF1F048
:100930006422B0FBF2F14FEA01114FEA11136FF09C
:1009400018056B4300EB8300A3891D044FF03203AD
:1009500006D503EBC000B0FBF2F000F0070005E0A5
:1009600003EB0010B0FBF2F000F00F000843208111
:1009700005B030BD003801408088C0F308007047E2
:10098000F8B5144E0AE020213046FFF794FF002806
:10099000F9D03046FFF7F0FF8DF800009DF8000019
:1009A0004728F0D10C4D002420213046FFF783FF6B
:1009B0000028F9D03046FFF7DFFF8DF800009DF8E2
:1009C00000002855641C102CEEDB28788DF8000000
:1009D000F8BD0000003801402400002070B50D4D26
:1009E00040212846FFF767FF0028F9D0522128460A
:1009F00000F014F8084E002440212846FFF75BFF62
:100A00000028F9D0315D284600F008F8641C102C4D
:100A1000F2DB70BD0038014024000020C1F3080162
:100A200081807047FEE702E008C8121F08C1002A53
:100A3000FAD170477047002001E001C1121F002A5F
:100A4000FBD17047064910B5002001F110020B5C84
:100A5000145C63400B54401C1028F8DB10BD0000F0
:100A6000240000202DE9F0472849294A4E7B8D7B40
:100A7000CC7B12F806C00B7B0F7812F805A012F899
:100A800004908CEA000CD25C87EA0C070F7091F896
:100A9000018088EA0A0881F8018091F802C08CEA96
:100AA000090C81F802C0C8785040C8700A797A40B1
:100AB0000A7191F8059089EA080981F805908F7903
:100AC00087EA0C078F7191F807C08CEA000C81F857
:100AD00007C0087A504008724A7A434082EA090205
:100AE0004A7291F80A80564088EA070881F80A801D
:100AF000CF7A85EA080587EA0C07CF720B734E732D
:100B00008D737C40CC73BDE8F0870000340000207A
:100B10000A0C0008FFF76EFCFFF754FBFFF72EFBF3
:100B2000FFF72EFFFFF764FBFFF758FFF4E7000025
:100B30002DE9F043DFF86890002309EB030219F870
:100B4000037092F801809678D57887EA080080EAE9
:100B500006046C4000F050F819F80310604048405B
:100B600009F8030088EA060000F046F85178604072
:100B70004840507086EA050000F03EF891786040E9
:100B80004840907085EA070000F036F8D178604060
:100B900048401B1DDBB2D070102BCED3BDE8F083D4
:100BA000240000200C48417842794270427A427118
:100BB000427B42724173817A827882728170817B3A
:100BC000827982738171C178C27BC270C27AC2732A
:100BD000C279C272C1717047240000200449054ADD
:100BE00000200B5CD35C0B54401C1028F9DB7047D1
:100BF000240000200A0C0008010603D51B2181EA0D
:100C0000400000E04000C0B27047637C777BF26B2D
:100C10006FC53001672BFED7AB76CA82C97DFA5902
:100C200047F0ADD4A2AF9CA472C0B7FD9326363F67
:100C3000F7CC34A5E5F171D8311504C723C3189654
:100C4000059A071280E2EB27B27509832C1A1B6EF6
:100C50005AA0523BD6B329E32F8453D100ED20FC98
:100C6000B15B6ACBBE394A4C58CFD0EFAAFB434D9B
:100C7000338545F9027F503C9FA851A3408F929D38
:100C800038F5BCB6DA2110FFF3D2CD0C13EC5F9728
:100C90004417C4A77E3D645D197360814FDC222A2E
:100CA000908846EEB814DE5E0BDBE0323A0A490665
:100CB000245CC2D3AC629195E479E7C8376D8DD5D9
:100CC0004EA96C56F4EA657AAE08BA78252E1CA6B1
:100CD000B4C6E8DD741F4BBD8B8A703EB566480311
:100CE000F60E613557B986C11D9EE1F8981169D994
:100CF0008E949B1E87E9CE5528DF8CA1890DBFE617
:100D0000426841992D0FB054BB1600002C0D00080D
:100D10000000002024000000260A0008500D0008F2
:100D20002400002024040000360A000802040608FB
:100D30000000000001020304010203040607080981
:100D400001020408102040801B366CD8AB00000064
:0400000508000121CD
:00000001FF
